{
  "_format": "hh-sol-artifact-1",
  "contractName": "MyEpicNFT",
  "sourceName": "contracts/MyEpicNFT.sol",
  "abi": [
    {
      "inputs": [],
      "stateMutability": "nonpayable",
      "type": "constructor"
    },
    {
      "anonymous": false,
      "inputs": [
        {
          "indexed": true,
          "internalType": "address",
          "name": "owner",
          "type": "address"
        },
        {
          "indexed": true,
          "internalType": "address",
          "name": "approved",
          "type": "address"
        },
        {
          "indexed": true,
          "internalType": "uint256",
          "name": "tokenId",
          "type": "uint256"
        }
      ],
      "name": "Approval",
      "type": "event"
    },
    {
      "anonymous": false,
      "inputs": [
        {
          "indexed": true,
          "internalType": "address",
          "name": "owner",
          "type": "address"
        },
        {
          "indexed": true,
          "internalType": "address",
          "name": "operator",
          "type": "address"
        },
        {
          "indexed": false,
          "internalType": "bool",
          "name": "approved",
          "type": "bool"
        }
      ],
      "name": "ApprovalForAll",
      "type": "event"
    },
    {
      "anonymous": false,
      "inputs": [
        {
          "indexed": false,
          "internalType": "address",
          "name": "sender",
          "type": "address"
        },
        {
          "indexed": false,
          "internalType": "uint256",
          "name": "tokenId",
          "type": "uint256"
        }
      ],
      "name": "NewEpicNFTMinted",
      "type": "event"
    },
    {
      "anonymous": false,
      "inputs": [
        {
          "indexed": true,
          "internalType": "address",
          "name": "from",
          "type": "address"
        },
        {
          "indexed": true,
          "internalType": "address",
          "name": "to",
          "type": "address"
        },
        {
          "indexed": true,
          "internalType": "uint256",
          "name": "tokenId",
          "type": "uint256"
        }
      ],
      "name": "Transfer",
      "type": "event"
    },
    {
      "inputs": [
        {
          "internalType": "address",
          "name": "to",
          "type": "address"
        },
        {
          "internalType": "uint256",
          "name": "tokenId",
          "type": "uint256"
        }
      ],
      "name": "approve",
      "outputs": [],
      "stateMutability": "nonpayable",
      "type": "function"
    },
    {
      "inputs": [
        {
          "internalType": "address",
          "name": "owner",
          "type": "address"
        }
      ],
      "name": "balanceOf",
      "outputs": [
        {
          "internalType": "uint256",
          "name": "",
          "type": "uint256"
        }
      ],
      "stateMutability": "view",
      "type": "function"
    },
    {
      "inputs": [
        {
          "internalType": "uint256",
          "name": "tokenId",
          "type": "uint256"
        }
      ],
      "name": "getApproved",
      "outputs": [
        {
          "internalType": "address",
          "name": "",
          "type": "address"
        }
      ],
      "stateMutability": "view",
      "type": "function"
    },
    {
      "inputs": [],
      "name": "getTotalNFTsMintedSoFar",
      "outputs": [
        {
          "internalType": "string",
          "name": "",
          "type": "string"
        }
      ],
      "stateMutability": "view",
      "type": "function"
    },
    {
      "inputs": [
        {
          "internalType": "address",
          "name": "owner",
          "type": "address"
        },
        {
          "internalType": "address",
          "name": "operator",
          "type": "address"
        }
      ],
      "name": "isApprovedForAll",
      "outputs": [
        {
          "internalType": "bool",
          "name": "",
          "type": "bool"
        }
      ],
      "stateMutability": "view",
      "type": "function"
    },
    {
      "inputs": [],
      "name": "makeAnEpicNFT",
      "outputs": [],
      "stateMutability": "nonpayable",
      "type": "function"
    },
    {
      "inputs": [],
      "name": "name",
      "outputs": [
        {
          "internalType": "string",
          "name": "",
          "type": "string"
        }
      ],
      "stateMutability": "view",
      "type": "function"
    },
    {
      "inputs": [
        {
          "internalType": "uint256",
          "name": "tokenId",
          "type": "uint256"
        }
      ],
      "name": "ownerOf",
      "outputs": [
        {
          "internalType": "address",
          "name": "",
          "type": "address"
        }
      ],
      "stateMutability": "view",
      "type": "function"
    },
    {
      "inputs": [
        {
          "internalType": "uint256",
          "name": "tokenId",
          "type": "uint256"
        }
      ],
      "name": "pickRandomFirstWord",
      "outputs": [
        {
          "internalType": "string",
          "name": "",
          "type": "string"
        }
      ],
      "stateMutability": "view",
      "type": "function"
    },
    {
      "inputs": [
        {
          "internalType": "uint256",
          "name": "tokenId",
          "type": "uint256"
        }
      ],
      "name": "pickRandomSecondWord",
      "outputs": [
        {
          "internalType": "string",
          "name": "",
          "type": "string"
        }
      ],
      "stateMutability": "view",
      "type": "function"
    },
    {
      "inputs": [
        {
          "internalType": "uint256",
          "name": "tokenId",
          "type": "uint256"
        }
      ],
      "name": "pickRandomThirdWord",
      "outputs": [
        {
          "internalType": "string",
          "name": "",
          "type": "string"
        }
      ],
      "stateMutability": "view",
      "type": "function"
    },
    {
      "inputs": [
        {
          "internalType": "address",
          "name": "from",
          "type": "address"
        },
        {
          "internalType": "address",
          "name": "to",
          "type": "address"
        },
        {
          "internalType": "uint256",
          "name": "tokenId",
          "type": "uint256"
        }
      ],
      "name": "safeTransferFrom",
      "outputs": [],
      "stateMutability": "nonpayable",
      "type": "function"
    },
    {
      "inputs": [
        {
          "internalType": "address",
          "name": "from",
          "type": "address"
        },
        {
          "internalType": "address",
          "name": "to",
          "type": "address"
        },
        {
          "internalType": "uint256",
          "name": "tokenId",
          "type": "uint256"
        },
        {
          "internalType": "bytes",
          "name": "data",
          "type": "bytes"
        }
      ],
      "name": "safeTransferFrom",
      "outputs": [],
      "stateMutability": "nonpayable",
      "type": "function"
    },
    {
      "inputs": [
        {
          "internalType": "address",
          "name": "operator",
          "type": "address"
        },
        {
          "internalType": "bool",
          "name": "approved",
          "type": "bool"
        }
      ],
      "name": "setApprovalForAll",
      "outputs": [],
      "stateMutability": "nonpayable",
      "type": "function"
    },
    {
      "inputs": [
        {
          "internalType": "bytes4",
          "name": "interfaceId",
          "type": "bytes4"
        }
      ],
      "name": "supportsInterface",
      "outputs": [
        {
          "internalType": "bool",
          "name": "",
          "type": "bool"
        }
      ],
      "stateMutability": "view",
      "type": "function"
    },
    {
      "inputs": [],
      "name": "symbol",
      "outputs": [
        {
          "internalType": "string",
          "name": "",
          "type": "string"
        }
      ],
      "stateMutability": "view",
      "type": "function"
    },
    {
      "inputs": [
        {
          "internalType": "uint256",
          "name": "tokenId",
          "type": "uint256"
        }
      ],
      "name": "tokenURI",
      "outputs": [
        {
          "internalType": "string",
          "name": "",
          "type": "string"
        }
      ],
      "stateMutability": "view",
      "type": "function"
    },
    {
      "inputs": [
        {
          "internalType": "address",
          "name": "from",
          "type": "address"
        },
        {
          "internalType": "address",
          "name": "to",
          "type": "address"
        },
        {
          "internalType": "uint256",
          "name": "tokenId",
          "type": "uint256"
        }
      ],
      "name": "transferFrom",
      "outputs": [],
      "stateMutability": "nonpayable",
      "type": "function"
    }
  ],
  "bytecode": "0x608060405260405180610160016040528061012f815260200162004e9461012f913960089081620000319190620011f3565b506040518061024001604052806040518060400160405280600781526020017f4c69636f726e650000000000000000000000000000000000000000000000000081525081526020016040518060400160405280600581526020017f4e696e6a6100000000000000000000000000000000000000000000000000000081525081526020016040518060400160405280600581526020017f436869656e00000000000000000000000000000000000000000000000000000081525081526020016040518060400160405280600481526020017f436861740000000000000000000000000000000000000000000000000000000081525081526020016040518060400160405280600781526020017f506f6b656d6f6e0000000000000000000000000000000000000000000000000081525081526020016040518060400160405280600581526020017f486f6d6d6500000000000000000000000000000000000000000000000000000081525081526020016040518060400160405280600581526020017f46656d6d6500000000000000000000000000000000000000000000000000000081525081526020016040518060400160405280600d81526020017f4f726e6974686f72796e7175650000000000000000000000000000000000000081525081526020016040518060400160405280600681526020017f447261676f6e000000000000000000000000000000000000000000000000000081525081526020016040518060400160405280600781526020017f50686f656e69780000000000000000000000000000000000000000000000000081525081526020016040518060400160405280600881526020017f43656e746175726500000000000000000000000000000000000000000000000081525081526020016040518060400160405280600981526020017f44696e6f7361757265000000000000000000000000000000000000000000000081525081526020016040518060400160405280600581526020017f446965757800000000000000000000000000000000000000000000000000000081525081526020016040518060400160405280600581526020017f476f756c6500000000000000000000000000000000000000000000000000000081525081526020016040518060400160405280600481526020017f4e61696e0000000000000000000000000000000000000000000000000000000081525081526020016040518060400160405280600481526020017f456c66650000000000000000000000000000000000000000000000000000000081525081526020016040518060400160405280600381526020017f4f7263000000000000000000000000000000000000000000000000000000000081525081526020016040518060400160405280600481526020017f596574690000000000000000000000000000000000000000000000000000000081525081525060099060126200047492919062000dcc565b506040518061022001604052806040518060400160405280600581526020017f506574697400000000000000000000000000000000000000000000000000000081525081526020016040518060400160405280600581526020017f4772616e6400000000000000000000000000000000000000000000000000000081525081526020016040518060400160405280600481526020017f426c65750000000000000000000000000000000000000000000000000000000081525081526020016040518060400160405280600581526020017f426c616e6300000000000000000000000000000000000000000000000000000081525081526020016040518060400160405280600581526020017f526f75676500000000000000000000000000000000000000000000000000000081525081526020016040518060400160405280600481526020017f4e6f69720000000000000000000000000000000000000000000000000000000081525081526020016040518060400160405280600481526020017f47726f730000000000000000000000000000000000000000000000000000000081525081526020016040518060400160405280600581526020017f546f72647500000000000000000000000000000000000000000000000000000081525081526020016040518060400160405280600681526020017f45636c6f7065000000000000000000000000000000000000000000000000000081525081526020016040518060400160405280600781526020017f456c6567616e740000000000000000000000000000000000000000000000000081525081526020016040518060400160405280600981526020017f4269656e2062617469000000000000000000000000000000000000000000000081525081526020016040518060400160405280600481526020017f4c656e740000000000000000000000000000000000000000000000000000000081525081526020016040518060400160405280600581526020017f4167696c6500000000000000000000000000000000000000000000000000000081525081526020016040518060400160405280600b81526020017f476967616e74697371756500000000000000000000000000000000000000000081525081526020016040518060400160405280600981526020017f4d696e757363756c65000000000000000000000000000000000000000000000081525081526020016040518060400160405280600a81526020017f546974616e65737175650000000000000000000000000000000000000000000081525081526020016040518060400160405280600681526020017f466c657472690000000000000000000000000000000000000000000000000000815250815250600a9060116200087c92919062000e2c565b50604051806101e001604052806040518060400160405280600a81526020017f416e6164796f6d656e650000000000000000000000000000000000000000000081525081526020016040518060400160405280600981526020017f43616c6c6970796765000000000000000000000000000000000000000000000081525081526020016040518060400160405280600981526020017f506574726f67656e65000000000000000000000000000000000000000000000081525081526020016040518060400160405280600c81526020017f53696e697374726f67797265000000000000000000000000000000000000000081525081526020016040518060400160405280600a81526020017f53746561746f707967650000000000000000000000000000000000000000000081525081526020016040518060400160405280600a81526020017f416e63696c6c616972650000000000000000000000000000000000000000000081525081526020016040518060400160405280600781526020017f547572706964650000000000000000000000000000000000000000000000000081525081526020016040518060400160405280600e81526020017f54696e74696e6e6162756c616e7400000000000000000000000000000000000081525081526020016040518060400160405280600b81526020017f547269736d65676973746500000000000000000000000000000000000000000081525081526020016040518060400160405280600981526020017f4d656c6c69666c7565000000000000000000000000000000000000000000000081525081526020016040518060400160405280600c81526020017f4c616d7061646f70686f7265000000000000000000000000000000000000000081525081526020016040518060400160405280600681526020017f4f626c6f6e67000000000000000000000000000000000000000000000000000081525081526020016040518060400160405280600981526020017f436573706974657578000000000000000000000000000000000000000000000081525081526020016040518060400160405280600d81526020017f497468797068616c6c697175650000000000000000000000000000000000000081525081526020016040518060400160405280601081526020017f496d7061726973796c6c61626971756500000000000000000000000000000000815250815250600b90600f62000c0e92919062000e8c565b5034801562000c1c57600080fd5b506040518060400160405280600981526020017f5371756172654e465400000000000000000000000000000000000000000000008152506040518060400160405280600681526020017f5351554152450000000000000000000000000000000000000000000000000000815250816000908162000c9a9190620011f3565b50806001908162000cac9190620011f3565b50505062000cfa6040518060400160405280601e81526020017f54686973206973206d79204e465420636f6e74726163742e20576f616821000081525062000d0060201b6200102a1760201c565b6200138d565b62000da08160405160240162000d17919062001369565b6040516020818303038152906040527f41304fac000000000000000000000000000000000000000000000000000000007bffffffffffffffffffffffffffffffffffffffffffffffffffffffff19166020820180517bffffffffffffffffffffffffffffffffffffffffffffffffffffffff838183161783525050505062000da360201b60201c565b50565b60008151905060006a636f6e736f6c652e6c6f679050602083016000808483855afa5050505050565b82805482825590600052602060002090810192821562000e19579160200282015b8281111562000e1857825182908162000e079190620011f3565b509160200191906001019062000ded565b5b50905062000e28919062000eec565b5090565b82805482825590600052602060002090810192821562000e79579160200282015b8281111562000e7857825182908162000e679190620011f3565b509160200191906001019062000e4d565b5b50905062000e88919062000eec565b5090565b82805482825590600052602060002090810192821562000ed9579160200282015b8281111562000ed857825182908162000ec79190620011f3565b509160200191906001019062000ead565b5b50905062000ee8919062000eec565b5090565b5b8082111562000f10576000818162000f06919062000f14565b5060010162000eed565b5090565b50805462000f229062000fe2565b6000825580601f1062000f36575062000f57565b601f01602090049060005260206000209081019062000f56919062000f5a565b5b50565b5b8082111562000f7557600081600090555060010162000f5b565b5090565b600081519050919050565b7f4e487b7100000000000000000000000000000000000000000000000000000000600052604160045260246000fd5b7f4e487b7100000000000000000000000000000000000000000000000000000000600052602260045260246000fd5b6000600282049050600182168062000ffb57607f821691505b60208210810362001011576200101062000fb3565b5b50919050565b60008190508160005260206000209050919050565b60006020601f8301049050919050565b600082821b905092915050565b6000600883026200107b7fffffffffffffffffffffffffffffffffffffffffffffffffffffffffffffffff826200103c565b6200108786836200103c565b95508019841693508086168417925050509392505050565b6000819050919050565b6000819050919050565b6000620010d4620010ce620010c8846200109f565b620010a9565b6200109f565b9050919050565b6000819050919050565b620010f083620010b3565b62001108620010ff82620010db565b84845462001049565b825550505050565b600090565b6200111f62001110565b6200112c818484620010e5565b505050565b5b8181101562001154576200114860008262001115565b60018101905062001132565b5050565b601f821115620011a3576200116d8162001017565b62001178846200102c565b8101602085101562001188578190505b620011a062001197856200102c565b83018262001131565b50505b505050565b600082821c905092915050565b6000620011c860001984600802620011a8565b1980831691505092915050565b6000620011e38383620011b5565b9150826002028217905092915050565b620011fe8262000f79565b67ffffffffffffffff8111156200121a576200121962000f84565b5b62001226825462000fe2565b6200123382828562001158565b600060209050601f8311600181146200126b576000841562001256578287015190505b620012628582620011d5565b865550620012d2565b601f1984166200127b8662001017565b60005b82811015620012a5578489015182556001820191506020850194506020810190506200127e565b86831015620012c55784890151620012c1601f891682620011b5565b8355505b6001600288020188555050505b505050505050565b600082825260208201905092915050565b60005b838110156200130b578082015181840152602081019050620012ee565b60008484015250505050565b6000601f19601f8301169050919050565b6000620013358262000f79565b620013418185620012da565b935062001353818560208601620012eb565b6200135e8162001317565b840191505092915050565b6000602082019050818103600083015262001385818462001328565b905092915050565b613af7806200139d6000396000f3fe608060405234801561001057600080fd5b50600436106101165760003560e01c806370a08231116100a2578063b88d4fde11610071578063b88d4fde14610305578063c575757a14610321578063c87b56dd14610351578063de9d132f14610381578063e985e9c51461038b57610116565b806370a082311461026b57806395d89b411461029b578063a22cb465146102b9578063b187301f146102d557610116565b8063095ea7b3116100e9578063095ea7b3146101b757806323b872dd146101d35780632de38d68146101ef57806342842e0e1461021f5780636352211e1461023b57610116565b806301ffc9a71461011b578063060475901461014b57806306fdde0314610169578063081812fc14610187575b600080fd5b610135600480360381019061013091906123a8565b6103bb565b60405161014291906123f0565b60405180910390f35b61015361049d565b604051610160919061249b565b60405180910390f35b6101716104bc565b60405161017e919061249b565b60405180910390f35b6101a1600480360381019061019c91906124f3565b61054e565b6040516101ae9190612561565b60405180910390f35b6101d160048036038101906101cc91906125a8565b610594565b005b6101ed60048036038101906101e891906125e8565b6106ab565b005b610209600480360381019061020491906124f3565b61070b565b604051610216919061249b565b60405180910390f35b610239600480360381019061023491906125e8565b610803565b005b610255600480360381019061025091906124f3565b610823565b6040516102629190612561565b60405180910390f35b6102856004803603810190610280919061263b565b6108a9565b6040516102929190612677565b60405180910390f35b6102a3610960565b6040516102b0919061249b565b60405180910390f35b6102d360048036038101906102ce91906126be565b6109f2565b005b6102ef60048036038101906102ea91906124f3565b610a08565b6040516102fc919061249b565b60405180910390f35b61031f600480360381019061031a9190612833565b610b00565b005b61033b600480360381019061033691906124f3565b610b62565b604051610348919061249b565b60405180910390f35b61036b600480360381019061036691906124f3565b610c5a565b604051610378919061249b565b60405180910390f35b610389610d6c565b005b6103a560048036038101906103a091906128b6565b610f96565b6040516103b291906123f0565b60405180910390f35b60007f80ac58cd000000000000000000000000000000000000000000000000000000007bffffffffffffffffffffffffffffffffffffffffffffffffffffffff1916827bffffffffffffffffffffffffffffffffffffffffffffffffffffffff1916148061048657507f5b5e139f000000000000000000000000000000000000000000000000000000007bffffffffffffffffffffffffffffffffffffffffffffffffffffffff1916827bffffffffffffffffffffffffffffffffffffffffffffffffffffffff1916145b806104965750610495826110c3565b5b9050919050565b606060006104ab600761112d565b90506104b68161113b565b91505090565b6060600080546104cb90612925565b80601f01602080910402602001604051908101604052809291908181526020018280546104f790612925565b80156105445780601f1061051957610100808354040283529160200191610544565b820191906000526020600020905b81548152906001019060200180831161052757829003601f168201915b5050505050905090565b600061055982611209565b6004600083815260200190815260200160002060009054906101000a900473ffffffffffffffffffffffffffffffffffffffff169050919050565b600061059f82610823565b90508073ffffffffffffffffffffffffffffffffffffffff168373ffffffffffffffffffffffffffffffffffffffff160361060f576040517f08c379a0000000000000000000000000000000000000000000000000000000008152600401610606906129c8565b60405180910390fd5b8073ffffffffffffffffffffffffffffffffffffffff1661062e611254565b73ffffffffffffffffffffffffffffffffffffffff16148061065d575061065c81610657611254565b610f96565b5b61069c576040517f08c379a000000000000000000000000000000000000000000000000000000000815260040161069390612a5a565b60405180910390fd5b6106a6838361125c565b505050565b6106bc6106b6611254565b82611315565b6106fb576040517f08c379a00000000000000000000000000000000000000000000000000000000081526004016106f290612aec565b60405180910390fd5b6107068383836113aa565b505050565b6060600061073f61071b8461113b565b60405160200161072b9190612b94565b6040516020818303038152906040526116a3565b9050600980549050816107529190612be5565b90506009818154811061076857610767612c16565b5b90600052602060002001805461077d90612925565b80601f01602080910402602001604051908101604052809291908181526020018280546107a990612925565b80156107f65780601f106107cb576101008083540402835291602001916107f6565b820191906000526020600020905b8154815290600101906020018083116107d957829003601f168201915b5050505050915050919050565b61081e83838360405180602001604052806000815250610b00565b505050565b60008061082f836116d6565b9050600073ffffffffffffffffffffffffffffffffffffffff168173ffffffffffffffffffffffffffffffffffffffff16036108a0576040517f08c379a000000000000000000000000000000000000000000000000000000000815260040161089790612c91565b60405180910390fd5b80915050919050565b60008073ffffffffffffffffffffffffffffffffffffffff168273ffffffffffffffffffffffffffffffffffffffff1603610919576040517f08c379a000000000000000000000000000000000000000000000000000000000815260040161091090612d23565b60405180910390fd5b600360008373ffffffffffffffffffffffffffffffffffffffff1673ffffffffffffffffffffffffffffffffffffffff168152602001908152602001600020549050919050565b60606001805461096f90612925565b80601f016020809104026020016040519081016040528092919081815260200182805461099b90612925565b80156109e85780601f106109bd576101008083540402835291602001916109e8565b820191906000526020600020905b8154815290600101906020018083116109cb57829003601f168201915b5050505050905090565b610a046109fd611254565b8383611713565b5050565b60606000610a3c610a188461113b565b604051602001610a289190612d8f565b6040516020818303038152906040526116a3565b9050600a8054905081610a4f9190612be5565b9050600a8181548110610a6557610a64612c16565b5b906000526020600020018054610a7a90612925565b80601f0160208091040260200160405190810160405280929190818152602001828054610aa690612925565b8015610af35780601f10610ac857610100808354040283529160200191610af3565b820191906000526020600020905b815481529060010190602001808311610ad657829003601f168201915b5050505050915050919050565b610b11610b0b611254565b83611315565b610b50576040517f08c379a0000000000000000000000000000000000000000000000000000000008152600401610b4790612aec565b60405180910390fd5b610b5c8484848461187f565b50505050565b60606000610b96610b728461113b565b604051602001610b829190612dfd565b6040516020818303038152906040526116a3565b9050600b8054905081610ba99190612be5565b9050600b8181548110610bbf57610bbe612c16565b5b906000526020600020018054610bd490612925565b80601f0160208091040260200160405190810160405280929190818152602001828054610c0090612925565b8015610c4d5780601f10610c2257610100808354040283529160200191610c4d565b820191906000526020600020905b815481529060010190602001808311610c3057829003601f168201915b5050505050915050919050565b6060610c6582611209565b6000600660008481526020019081526020016000208054610c8590612925565b80601f0160208091040260200160405190810160405280929190818152602001828054610cb190612925565b8015610cfe5780601f10610cd357610100808354040283529160200191610cfe565b820191906000526020600020905b815481529060010190602001808311610ce157829003601f168201915b505050505090506000610d0f6118db565b90506000815103610d24578192505050610d67565b600082511115610d59578082604051602001610d41929190612e1f565b60405160208183030381529060405292505050610d67565b610d62846118f2565b925050505b919050565b6000610d78600761112d565b905060058110610dbd576040517f08c379a0000000000000000000000000000000000000000000000000000000008152600401610db490612e8f565b60405180910390fd5b6000610dc88261070b565b90506000610dd583610a08565b90506000610de284610b62565b90506000838383604051602001610dfb93929190612eaf565b60405160208183030381529060405290506000600882604051602001610e22929190612fc4565b60405160208183030381529060405290506000610e6783610e428461195a565b604051602001610e53929190613149565b60405160208183030381529060405261195a565b9050600081604051602001610e7c91906131da565b6040516020818303038152906040529050610ecb6040518060400160405280601581526020017f0a2d2d2d2d2d2d2d2d2d2d2d2d2d2d2d2d2d2d2d2d000000000000000000000081525061102a565b610ed48161102a565b610f126040518060400160405280601581526020017f2d2d2d2d2d2d2d2d2d2d2d2d2d2d2d2d2d2d2d2d0a000000000000000000000081525061102a565b610f1c3389611af1565b610f268882611b0f565b610f306007611b7c565b610f53604051806060016040528060258152602001613a5d602591398933611b92565b7febb98688741ffa4c7589bf325de30cf7becb63de567842e1ccdb6cb949fdc82c3389604051610f849291906131fc565b60405180910390a15050505050505050565b6000600560008473ffffffffffffffffffffffffffffffffffffffff1673ffffffffffffffffffffffffffffffffffffffff16815260200190815260200160002060008373ffffffffffffffffffffffffffffffffffffffff1673ffffffffffffffffffffffffffffffffffffffff16815260200190815260200160002060009054906101000a900460ff16905092915050565b6110c08160405160240161103e919061249b565b6040516020818303038152906040527f41304fac000000000000000000000000000000000000000000000000000000007bffffffffffffffffffffffffffffffffffffffffffffffffffffffff19166020820180517bffffffffffffffffffffffffffffffffffffffffffffffffffffffff8381831617835250505050611c31565b50565b60007f01ffc9a7000000000000000000000000000000000000000000000000000000007bffffffffffffffffffffffffffffffffffffffffffffffffffffffff1916827bffffffffffffffffffffffffffffffffffffffffffffffffffffffff1916149050919050565b600081600001549050919050565b60606000600161114a84611c5a565b01905060008167ffffffffffffffff81111561116957611168612708565b5b6040519080825280601f01601f19166020018201604052801561119b5781602001600182028036833780820191505090505b509050600082602001820190505b6001156111fe578080600190039150507f3031323334353637383961626364656600000000000000000000000000000000600a86061a8153600a85816111f2576111f1612bb6565b5b049450600085036111a9575b819350505050919050565b61121281611dad565b611251576040517f08c379a000000000000000000000000000000000000000000000000000000000815260040161124890612c91565b60405180910390fd5b50565b600033905090565b816004600083815260200190815260200160002060006101000a81548173ffffffffffffffffffffffffffffffffffffffff021916908373ffffffffffffffffffffffffffffffffffffffff160217905550808273ffffffffffffffffffffffffffffffffffffffff166112cf83610823565b73ffffffffffffffffffffffffffffffffffffffff167f8c5be1e5ebec7d5bd14f71427d1e84f3dd0314c0f7b2291e5b200ac8c7c3b92560405160405180910390a45050565b60008061132183610823565b90508073ffffffffffffffffffffffffffffffffffffffff168473ffffffffffffffffffffffffffffffffffffffff16148061136357506113628185610f96565b5b806113a157508373ffffffffffffffffffffffffffffffffffffffff166113898461054e565b73ffffffffffffffffffffffffffffffffffffffff16145b91505092915050565b8273ffffffffffffffffffffffffffffffffffffffff166113ca82610823565b73ffffffffffffffffffffffffffffffffffffffff1614611420576040517f08c379a000000000000000000000000000000000000000000000000000000000815260040161141790613297565b60405180910390fd5b600073ffffffffffffffffffffffffffffffffffffffff168273ffffffffffffffffffffffffffffffffffffffff160361148f576040517f08c379a000000000000000000000000000000000000000000000000000000000815260040161148690613329565b60405180910390fd5b61149c8383836001611dee565b8273ffffffffffffffffffffffffffffffffffffffff166114bc82610823565b73ffffffffffffffffffffffffffffffffffffffff1614611512576040517f08c379a000000000000000000000000000000000000000000000000000000000815260040161150990613297565b60405180910390fd5b6004600082815260200190815260200160002060006101000a81549073ffffffffffffffffffffffffffffffffffffffff02191690556001600360008573ffffffffffffffffffffffffffffffffffffffff1673ffffffffffffffffffffffffffffffffffffffff168152602001908152602001600020600082825403925050819055506001600360008473ffffffffffffffffffffffffffffffffffffffff1673ffffffffffffffffffffffffffffffffffffffff16815260200190815260200160002060008282540192505081905550816002600083815260200190815260200160002060006101000a81548173ffffffffffffffffffffffffffffffffffffffff021916908373ffffffffffffffffffffffffffffffffffffffff160217905550808273ffffffffffffffffffffffffffffffffffffffff168473ffffffffffffffffffffffffffffffffffffffff167fddf252ad1be2c89b69c2b068fc378daa952ba7f163c4a11628f55a4df523b3ef60405160405180910390a461169e8383836001611f14565b505050565b6000816040516020016116b69190613349565b6040516020818303038152906040528051906020012060001c9050919050565b60006002600083815260200190815260200160002060009054906101000a900473ffffffffffffffffffffffffffffffffffffffff169050919050565b8173ffffffffffffffffffffffffffffffffffffffff168373ffffffffffffffffffffffffffffffffffffffff1603611781576040517f08c379a0000000000000000000000000000000000000000000000000000000008152600401611778906133ac565b60405180910390fd5b80600560008573ffffffffffffffffffffffffffffffffffffffff1673ffffffffffffffffffffffffffffffffffffffff16815260200190815260200160002060008473ffffffffffffffffffffffffffffffffffffffff1673ffffffffffffffffffffffffffffffffffffffff16815260200190815260200160002060006101000a81548160ff0219169083151502179055508173ffffffffffffffffffffffffffffffffffffffff168373ffffffffffffffffffffffffffffffffffffffff167f17307eab39ab6107e8899845ad3d59bd9653f200f220920489ca2b5937696c318360405161187291906123f0565b60405180910390a3505050565b61188a8484846113aa565b61189684848484611f1a565b6118d5576040517f08c379a00000000000000000000000000000000000000000000000000000000081526004016118cc9061343e565b60405180910390fd5b50505050565b606060405180602001604052806000815250905090565b60606118fd82611209565b60006119076118db565b905060008151116119275760405180602001604052806000815250611952565b806119318461113b565b604051602001611942929190612e1f565b6040516020818303038152906040525b915050919050565b6060600082519050600081036119825760405180602001604052806000815250915050611aec565b60006003600283611993919061348d565b61199d91906134c1565b60046119a991906134f2565b905060006020826119ba919061348d565b67ffffffffffffffff8111156119d3576119d2612708565b5b6040519080825280601f01601f191660200182016040528015611a055781602001600182028036833780820191505090505b5090506000604051806060016040528060408152602001613a82604091399050600181016020830160005b86811015611aa95760038101905062ffffff818a015116603f8160121c168401518060081b905060ff603f83600c1c1686015116810190508060081b905060ff603f8360061c1686015116810190508060081b905060ff603f831686015116810190508060e01b90508084526004840193505050611a30565b506003860660018114611ac35760028114611ad357611ade565b613d3d60f01b6002830352611ade565b603d60f81b60018303525b508484525050819450505050505b919050565b611b0b8282604051806020016040528060008152506120a1565b5050565b611b1882611dad565b611b57576040517f08c379a0000000000000000000000000000000000000000000000000000000008152600401611b4e906135a6565b60405180910390fd5b80600660008481526020019081526020016000209081611b77919061375d565b505050565b6001816000016000828254019250508190555050565b611c2c838383604051602401611baa9392919061382f565b6040516020818303038152906040527f1c7ec448000000000000000000000000000000000000000000000000000000007bffffffffffffffffffffffffffffffffffffffffffffffffffffffff19166020820180517bffffffffffffffffffffffffffffffffffffffffffffffffffffffff8381831617835250505050611c31565b505050565b60008151905060006a636f6e736f6c652e6c6f679050602083016000808483855afa5050505050565b600080600090507a184f03e93ff9f4daa797ed6e38ed64bf6a1f0100000000000000008310611cb8577a184f03e93ff9f4daa797ed6e38ed64bf6a1f0100000000000000008381611cae57611cad612bb6565b5b0492506040810190505b6d04ee2d6d415b85acef81000000008310611cf5576d04ee2d6d415b85acef81000000008381611ceb57611cea612bb6565b5b0492506020810190505b662386f26fc100008310611d2457662386f26fc100008381611d1a57611d19612bb6565b5b0492506010810190505b6305f5e1008310611d4d576305f5e1008381611d4357611d42612bb6565b5b0492506008810190505b6127108310611d72576127108381611d6857611d67612bb6565b5b0492506004810190505b60648310611d955760648381611d8b57611d8a612bb6565b5b0492506002810190505b600a8310611da4576001810190505b80915050919050565b60008073ffffffffffffffffffffffffffffffffffffffff16611dcf836116d6565b73ffffffffffffffffffffffffffffffffffffffff1614159050919050565b6001811115611f0e57600073ffffffffffffffffffffffffffffffffffffffff168473ffffffffffffffffffffffffffffffffffffffff1614611e825780600360008673ffffffffffffffffffffffffffffffffffffffff1673ffffffffffffffffffffffffffffffffffffffff1681526020019081526020016000206000828254611e7a919061386d565b925050819055505b600073ffffffffffffffffffffffffffffffffffffffff168373ffffffffffffffffffffffffffffffffffffffff1614611f0d5780600360008573ffffffffffffffffffffffffffffffffffffffff1673ffffffffffffffffffffffffffffffffffffffff1681526020019081526020016000206000828254611f05919061348d565b925050819055505b5b50505050565b50505050565b6000611f3b8473ffffffffffffffffffffffffffffffffffffffff166120fc565b15612094578373ffffffffffffffffffffffffffffffffffffffff1663150b7a02611f64611254565b8786866040518563ffffffff1660e01b8152600401611f8694939291906138f6565b6020604051808303816000875af1925050508015611fc257506040513d601f19601f82011682018060405250810190611fbf9190613957565b60015b612044573d8060008114611ff2576040519150601f19603f3d011682016040523d82523d6000602084013e611ff7565b606091505b50600081510361203c576040517f08c379a00000000000000000000000000000000000000000000000000000000081526004016120339061343e565b60405180910390fd5b805181602001fd5b63150b7a0260e01b7bffffffffffffffffffffffffffffffffffffffffffffffffffffffff1916817bffffffffffffffffffffffffffffffffffffffffffffffffffffffff191614915050612099565b600190505b949350505050565b6120ab838361211f565b6120b86000848484611f1a565b6120f7576040517f08c379a00000000000000000000000000000000000000000000000000000000081526004016120ee9061343e565b60405180910390fd5b505050565b6000808273ffffffffffffffffffffffffffffffffffffffff163b119050919050565b600073ffffffffffffffffffffffffffffffffffffffff168273ffffffffffffffffffffffffffffffffffffffff160361218e576040517f08c379a0000000000000000000000000000000000000000000000000000000008152600401612185906139d0565b60405180910390fd5b61219781611dad565b156121d7576040517f08c379a00000000000000000000000000000000000000000000000000000000081526004016121ce90613a3c565b60405180910390fd5b6121e5600083836001611dee565b6121ee81611dad565b1561222e576040517f08c379a000000000000000000000000000000000000000000000000000000000815260040161222590613a3c565b60405180910390fd5b6001600360008473ffffffffffffffffffffffffffffffffffffffff1673ffffffffffffffffffffffffffffffffffffffff16815260200190815260200160002060008282540192505081905550816002600083815260200190815260200160002060006101000a81548173ffffffffffffffffffffffffffffffffffffffff021916908373ffffffffffffffffffffffffffffffffffffffff160217905550808273ffffffffffffffffffffffffffffffffffffffff16600073ffffffffffffffffffffffffffffffffffffffff167fddf252ad1be2c89b69c2b068fc378daa952ba7f163c4a11628f55a4df523b3ef60405160405180910390a4612338600083836001611f14565b5050565b6000604051905090565b600080fd5b600080fd5b60007fffffffff0000000000000000000000000000000000000000000000000000000082169050919050565b61238581612350565b811461239057600080fd5b50565b6000813590506123a28161237c565b92915050565b6000602082840312156123be576123bd612346565b5b60006123cc84828501612393565b91505092915050565b60008115159050919050565b6123ea816123d5565b82525050565b600060208201905061240560008301846123e1565b92915050565b600081519050919050565b600082825260208201905092915050565b60005b8381101561244557808201518184015260208101905061242a565b60008484015250505050565b6000601f19601f8301169050919050565b600061246d8261240b565b6124778185612416565b9350612487818560208601612427565b61249081612451565b840191505092915050565b600060208201905081810360008301526124b58184612462565b905092915050565b6000819050919050565b6124d0816124bd565b81146124db57600080fd5b50565b6000813590506124ed816124c7565b92915050565b60006020828403121561250957612508612346565b5b6000612517848285016124de565b91505092915050565b600073ffffffffffffffffffffffffffffffffffffffff82169050919050565b600061254b82612520565b9050919050565b61255b81612540565b82525050565b60006020820190506125766000830184612552565b92915050565b61258581612540565b811461259057600080fd5b50565b6000813590506125a28161257c565b92915050565b600080604083850312156125bf576125be612346565b5b60006125cd85828601612593565b92505060206125de858286016124de565b9150509250929050565b60008060006060848603121561260157612600612346565b5b600061260f86828701612593565b935050602061262086828701612593565b9250506040612631868287016124de565b9150509250925092565b60006020828403121561265157612650612346565b5b600061265f84828501612593565b91505092915050565b612671816124bd565b82525050565b600060208201905061268c6000830184612668565b92915050565b61269b816123d5565b81146126a657600080fd5b50565b6000813590506126b881612692565b92915050565b600080604083850312156126d5576126d4612346565b5b60006126e385828601612593565b92505060206126f4858286016126a9565b9150509250929050565b600080fd5b600080fd5b7f4e487b7100000000000000000000000000000000000000000000000000000000600052604160045260246000fd5b61274082612451565b810181811067ffffffffffffffff8211171561275f5761275e612708565b5b80604052505050565b600061277261233c565b905061277e8282612737565b919050565b600067ffffffffffffffff82111561279e5761279d612708565b5b6127a782612451565b9050602081019050919050565b82818337600083830152505050565b60006127d66127d184612783565b612768565b9050828152602081018484840111156127f2576127f1612703565b5b6127fd8482856127b4565b509392505050565b600082601f83011261281a576128196126fe565b5b813561282a8482602086016127c3565b91505092915050565b6000806000806080858703121561284d5761284c612346565b5b600061285b87828801612593565b945050602061286c87828801612593565b935050604061287d878288016124de565b925050606085013567ffffffffffffffff81111561289e5761289d61234b565b5b6128aa87828801612805565b91505092959194509250565b600080604083850312156128cd576128cc612346565b5b60006128db85828601612593565b92505060206128ec85828601612593565b9150509250929050565b7f4e487b7100000000000000000000000000000000000000000000000000000000600052602260045260246000fd5b6000600282049050600182168061293d57607f821691505b6020821081036129505761294f6128f6565b5b50919050565b7f4552433732313a20617070726f76616c20746f2063757272656e74206f776e6560008201527f7200000000000000000000000000000000000000000000000000000000000000602082015250565b60006129b2602183612416565b91506129bd82612956565b604082019050919050565b600060208201905081810360008301526129e1816129a5565b9050919050565b7f4552433732313a20617070726f76652063616c6c6572206973206e6f7420746f60008201527f6b656e206f776e6572206f7220617070726f76656420666f7220616c6c000000602082015250565b6000612a44603d83612416565b9150612a4f826129e8565b604082019050919050565b60006020820190508181036000830152612a7381612a37565b9050919050565b7f4552433732313a2063616c6c6572206973206e6f7420746f6b656e206f776e6560008201527f72206f7220617070726f76656400000000000000000000000000000000000000602082015250565b6000612ad6602d83612416565b9150612ae182612a7a565b604082019050919050565b60006020820190508181036000830152612b0581612ac9565b9050919050565b600081905092915050565b7f46495253545f574f524400000000000000000000000000000000000000000000600082015250565b6000612b4d600a83612b0c565b9150612b5882612b17565b600a82019050919050565b6000612b6e8261240b565b612b788185612b0c565b9350612b88818560208601612427565b80840191505092915050565b6000612b9f82612b40565b9150612bab8284612b63565b915081905092915050565b7f4e487b7100000000000000000000000000000000000000000000000000000000600052601260045260246000fd5b6000612bf0826124bd565b9150612bfb836124bd565b925082612c0b57612c0a612bb6565b5b828206905092915050565b7f4e487b7100000000000000000000000000000000000000000000000000000000600052603260045260246000fd5b7f4552433732313a20696e76616c696420746f6b656e2049440000000000000000600082015250565b6000612c7b601883612416565b9150612c8682612c45565b602082019050919050565b60006020820190508181036000830152612caa81612c6e565b9050919050565b7f4552433732313a2061646472657373207a65726f206973206e6f74206120766160008201527f6c6964206f776e65720000000000000000000000000000000000000000000000602082015250565b6000612d0d602983612416565b9150612d1882612cb1565b604082019050919050565b60006020820190508181036000830152612d3c81612d00565b9050919050565b7f5345434f4e445f574f5244000000000000000000000000000000000000000000600082015250565b6000612d79600b83612b0c565b9150612d8482612d43565b600b82019050919050565b6000612d9a82612d6c565b9150612da68284612b63565b915081905092915050565b7f54484952445f574f524400000000000000000000000000000000000000000000600082015250565b6000612de7600a83612b0c565b9150612df282612db1565b600a82019050919050565b6000612e0882612dda565b9150612e148284612b63565b915081905092915050565b6000612e2b8285612b63565b9150612e378284612b63565b91508190509392505050565b7f5468657265206973206e6f206d6f7265204e465420746f206d696e7400000000600082015250565b6000612e79601c83612416565b9150612e8482612e43565b602082019050919050565b60006020820190508181036000830152612ea881612e6c565b9050919050565b6000612ebb8286612b63565b9150612ec78285612b63565b9150612ed38284612b63565b9150819050949350505050565b60008190508160005260206000209050919050565b60008154612f0281612925565b612f0c8186612b0c565b94506001821660008114612f275760018114612f3c57612f6f565b60ff1983168652811515820286019350612f6f565b612f4585612ee0565b60005b83811015612f6757815481890152600182019150602081019050612f48565b838801955050505b50505092915050565b7f3c2f746578743e3c2f7376673e00000000000000000000000000000000000000600082015250565b6000612fae600d83612b0c565b9150612fb982612f78565b600d82019050919050565b6000612fd08285612ef5565b9150612fdc8284612b63565b9150612fe782612fa1565b91508190509392505050565b7f7b226e616d65223a202200000000000000000000000000000000000000000000600082015250565b6000613029600a83612b0c565b915061303482612ff3565b600a82019050919050565b7f222c20226465736372697074696f6e223a20224120686967686c79206163636c60008201527f61696d656420636f6c6c656374696f6e206f6620737175617265732e222c202260208201527f696d616765223a2022646174613a696d6167652f7376672b786d6c3b6261736560408201527f36342c0000000000000000000000000000000000000000000000000000000000606082015250565b60006130e7606383612b0c565b91506130f28261303f565b606382019050919050565b7f227d000000000000000000000000000000000000000000000000000000000000600082015250565b6000613133600283612b0c565b915061313e826130fd565b600282019050919050565b60006131548261301c565b91506131608285612b63565b915061316b826130da565b91506131778284612b63565b915061318282613126565b91508190509392505050565b7f646174613a6170706c69636174696f6e2f6a736f6e3b6261736536342c000000600082015250565b60006131c4601d83612b0c565b91506131cf8261318e565b601d82019050919050565b60006131e5826131b7565b91506131f18284612b63565b915081905092915050565b60006040820190506132116000830185612552565b61321e6020830184612668565b9392505050565b7f4552433732313a207472616e736665722066726f6d20696e636f72726563742060008201527f6f776e6572000000000000000000000000000000000000000000000000000000602082015250565b6000613281602583612416565b915061328c82613225565b604082019050919050565b600060208201905081810360008301526132b081613274565b9050919050565b7f4552433732313a207472616e7366657220746f20746865207a65726f2061646460008201527f7265737300000000000000000000000000000000000000000000000000000000602082015250565b6000613313602483612416565b915061331e826132b7565b604082019050919050565b6000602082019050818103600083015261334281613306565b9050919050565b60006133558284612b63565b915081905092915050565b7f4552433732313a20617070726f766520746f2063616c6c657200000000000000600082015250565b6000613396601983612416565b91506133a182613360565b602082019050919050565b600060208201905081810360008301526133c581613389565b9050919050565b7f4552433732313a207472616e7366657220746f206e6f6e20455243373231526560008201527f63656976657220696d706c656d656e7465720000000000000000000000000000602082015250565b6000613428603283612416565b9150613433826133cc565b604082019050919050565b600060208201905081810360008301526134578161341b565b9050919050565b7f4e487b7100000000000000000000000000000000000000000000000000000000600052601160045260246000fd5b6000613498826124bd565b91506134a3836124bd565b92508282019050808211156134bb576134ba61345e565b5b92915050565b60006134cc826124bd565b91506134d7836124bd565b9250826134e7576134e6612bb6565b5b828204905092915050565b60006134fd826124bd565b9150613508836124bd565b9250828202613516816124bd565b9150828204841483151761352d5761352c61345e565b5b5092915050565b7f45524337323155524953746f726167653a2055524920736574206f66206e6f6e60008201527f6578697374656e7420746f6b656e000000000000000000000000000000000000602082015250565b6000613590602e83612416565b915061359b82613534565b604082019050919050565b600060208201905081810360008301526135bf81613583565b9050919050565b60006020601f8301049050919050565b600082821b905092915050565b6000600883026136137fffffffffffffffffffffffffffffffffffffffffffffffffffffffffffffffff826135d6565b61361d86836135d6565b95508019841693508086168417925050509392505050565b6000819050919050565b600061365a613655613650846124bd565b613635565b6124bd565b9050919050565b6000819050919050565b6136748361363f565b61368861368082613661565b8484546135e3565b825550505050565b600090565b61369d613690565b6136a881848461366b565b505050565b5b818110156136cc576136c1600082613695565b6001810190506136ae565b5050565b601f821115613711576136e281612ee0565b6136eb846135c6565b810160208510156136fa578190505b61370e613706856135c6565b8301826136ad565b50505b505050565b600082821c905092915050565b600061373460001984600802613716565b1980831691505092915050565b600061374d8383613723565b9150826002028217905092915050565b6137668261240b565b67ffffffffffffffff81111561377f5761377e612708565b5b6137898254612925565b6137948282856136d0565b600060209050601f8311600181146137c757600084156137b5578287015190505b6137bf8582613741565b865550613827565b601f1984166137d586612ee0565b60005b828110156137fd578489015182556001820191506020850194506020810190506137d8565b8683101561381a5784890151613816601f891682613723565b8355505b6001600288020188555050505b505050505050565b600060608201905081810360008301526138498186612462565b90506138586020830185612668565b6138656040830184612552565b949350505050565b6000613878826124bd565b9150613883836124bd565b925082820390508181111561389b5761389a61345e565b5b92915050565b600081519050919050565b600082825260208201905092915050565b60006138c8826138a1565b6138d281856138ac565b93506138e2818560208601612427565b6138eb81612451565b840191505092915050565b600060808201905061390b6000830187612552565b6139186020830186612552565b6139256040830185612668565b818103606083015261393781846138bd565b905095945050505050565b6000815190506139518161237c565b92915050565b60006020828403121561396d5761396c612346565b5b600061397b84828501613942565b91505092915050565b7f4552433732313a206d696e7420746f20746865207a65726f2061646472657373600082015250565b60006139ba602083612416565b91506139c582613984565b602082019050919050565b600060208201905081810360008301526139e9816139ad565b9050919050565b7f4552433732313a20746f6b656e20616c7265616479206d696e74656400000000600082015250565b6000613a26601c83612416565b9150613a31826139f0565b602082019050919050565b60006020820190508181036000830152613a5581613a19565b905091905056fe416e204e465420772f20494420257320686173206265656e206d696e74656420746f2025734142434445464748494a4b4c4d4e4f505152535455565758595a6162636465666768696a6b6c6d6e6f707172737475767778797a303132333435363738392b2fa2646970667358221220fea1837a40b391d06a36a00d0ced68a21545265d900a19cc74bb59f43474e34664736f6c634300081100333c73766720786d6c6e733d27687474703a2f2f7777772e77332e6f72672f323030302f73766727207072657365727665417370656374526174696f3d27784d696e594d696e206d656574272076696577426f783d273020302033353020333530273e3c7374796c653e2e62617365207b2066696c6c3a2077686974653b20666f6e742d66616d696c793a2073657269663b20666f6e742d73697a653a20323470783b207d3c2f7374796c653e3c726563742077696474683d273130302527206865696768743d2731303025272066696c6c3d27626c61636b27202f3e3c7465787420783d273530252720793d273530252720636c6173733d27626173652720646f6d696e616e742d626173656c696e653d276d6964646c652720746578742d616e63686f723d276d6964646c65273e",
  "linkReferences": {},
  "deployedLinkReferences": {}
}